{
  "_format": "hh-sol-artifact-1",
  "contractName": "VipAuctionEngine",
  "sourceName": "contracts/VipAuctionEngine.sol",
  "abi": [
    {
      "inputs": [],
      "stateMutability": "nonpayable",
      "type": "constructor"
    },
    {
      "anonymous": false,
      "inputs": [
        {
          "indexed": true,
          "internalType": "uint256",
          "name": "index",
          "type": "uint256"
        },
        {
          "indexed": false,
          "internalType": "string",
          "name": "itemName",
          "type": "string"
        },
        {
          "indexed": false,
          "internalType": "uint256",
          "name": "minBid",
          "type": "uint256"
        },
        {
          "indexed": false,
          "internalType": "uint256",
          "name": "duration",
          "type": "uint256"
        }
      ],
      "name": "AuctionCreated",
      "type": "event"
    },
    {
      "anonymous": false,
      "inputs": [
        {
          "indexed": true,
          "internalType": "uint256",
          "name": "index",
          "type": "uint256"
        },
        {
          "indexed": false,
          "internalType": "uint256",
          "name": "endPrice",
          "type": "uint256"
        },
        {
          "components": [
            {
              "internalType": "address",
              "name": "bidderAddress",
              "type": "address"
            },
            {
              "internalType": "uint256",
              "name": "bid",
              "type": "uint256"
            },
            {
              "internalType": "uint256",
              "name": "timestamp",
              "type": "uint256"
            }
          ],
          "indexed": false,
          "internalType": "struct VipAuctionEngine.Bidder[]",
          "name": "winners",
          "type": "tuple[]"
        },
        {
          "components": [
            {
              "internalType": "address",
              "name": "bidderAddress",
              "type": "address"
            },
            {
              "internalType": "uint256",
              "name": "bid",
              "type": "uint256"
            },
            {
              "internalType": "uint256",
              "name": "timestamp",
              "type": "uint256"
            }
          ],
          "indexed": false,
          "internalType": "struct VipAuctionEngine.Bidder[]",
          "name": "otherParticipants",
          "type": "tuple[]"
        }
      ],
      "name": "AuctionEnded",
      "type": "event"
    },
    {
      "anonymous": false,
      "inputs": [
        {
          "indexed": true,
          "internalType": "uint256",
          "name": "index",
          "type": "uint256"
        },
        {
          "indexed": false,
          "internalType": "address",
          "name": "bidderAddress",
          "type": "address"
        },
        {
          "indexed": false,
          "internalType": "uint256",
          "name": "bid",
          "type": "uint256"
        },
        {
          "components": [
            {
              "internalType": "address",
              "name": "bidderAddress",
              "type": "address"
            },
            {
              "internalType": "uint256",
              "name": "bid",
              "type": "uint256"
            },
            {
              "internalType": "uint256",
              "name": "timestamp",
              "type": "uint256"
            }
          ],
          "indexed": false,
          "internalType": "struct VipAuctionEngine.Bidder[]",
          "name": "winners",
          "type": "tuple[]"
        },
        {
          "components": [
            {
              "internalType": "address",
              "name": "bidderAddress",
              "type": "address"
            },
            {
              "internalType": "uint256",
              "name": "bid",
              "type": "uint256"
            },
            {
              "internalType": "uint256",
              "name": "timestamp",
              "type": "uint256"
            }
          ],
          "indexed": false,
          "internalType": "struct VipAuctionEngine.Bidder[]",
          "name": "otherParticipants",
          "type": "tuple[]"
        }
      ],
      "name": "BidAdded",
      "type": "event"
    },
    {
      "inputs": [
        {
          "internalType": "uint256",
          "name": "",
          "type": "uint256"
        }
      ],
      "name": "auctions",
      "outputs": [
        {
          "internalType": "string",
          "name": "item",
          "type": "string"
        },
        {
          "internalType": "uint256",
          "name": "ticketsSupply",
          "type": "uint256"
        },
        {
          "internalType": "uint256",
          "name": "minBid",
          "type": "uint256"
        },
        {
          "internalType": "address",
          "name": "ticket",
          "type": "address"
        },
        {
          "internalType": "address",
          "name": "revenueAddress",
          "type": "address"
        },
        {
          "internalType": "uint256",
          "name": "startAt",
          "type": "uint256"
        },
        {
          "internalType": "uint256",
          "name": "endsAt",
          "type": "uint256"
        },
        {
          "internalType": "bool",
          "name": "ended",
          "type": "bool"
        }
      ],
      "stateMutability": "view",
      "type": "function"
    },
    {
      "inputs": [
        {
          "internalType": "uint256",
          "name": "index",
          "type": "uint256"
        }
      ],
      "name": "bid",
      "outputs": [],
      "stateMutability": "payable",
      "type": "function"
    },
    {
      "inputs": [
        {
          "internalType": "string",
          "name": "_item",
          "type": "string"
        },
        {
          "internalType": "uint256",
          "name": "_ticketsSupply",
          "type": "uint256"
        },
        {
          "internalType": "uint256",
          "name": "_minBid",
          "type": "uint256"
        },
        {
          "internalType": "address",
          "name": "_revenueAddress",
          "type": "address"
        },
        {
          "internalType": "uint256",
          "name": "_duration",
          "type": "uint256"
        }
      ],
      "name": "createAuction",
      "outputs": [],
      "stateMutability": "nonpayable",
      "type": "function"
    },
    {
      "inputs": [
        {
          "internalType": "uint256",
          "name": "index",
          "type": "uint256"
        }
      ],
      "name": "endAuction",
      "outputs": [],
      "stateMutability": "nonpayable",
      "type": "function"
    },
    {
      "inputs": [],
      "name": "getAuctionsLength",
      "outputs": [
        {
          "internalType": "uint256",
          "name": "",
          "type": "uint256"
        }
      ],
      "stateMutability": "view",
      "type": "function"
    },
    {
      "inputs": [
        {
          "internalType": "uint256",
          "name": "index",
          "type": "uint256"
        }
      ],
      "name": "getWinnersAndOtherParticipants",
      "outputs": [
        {
          "components": [
            {
              "internalType": "address",
              "name": "bidderAddress",
              "type": "address"
            },
            {
              "internalType": "uint256",
              "name": "bid",
              "type": "uint256"
            },
            {
              "internalType": "uint256",
              "name": "timestamp",
              "type": "uint256"
            }
          ],
          "internalType": "struct VipAuctionEngine.Bidder[]",
          "name": "winners",
          "type": "tuple[]"
        },
        {
          "components": [
            {
              "internalType": "address",
              "name": "bidderAddress",
              "type": "address"
            },
            {
              "internalType": "uint256",
              "name": "bid",
              "type": "uint256"
            },
            {
              "internalType": "uint256",
              "name": "timestamp",
              "type": "uint256"
            }
          ],
          "internalType": "struct VipAuctionEngine.Bidder[]",
          "name": "otherParticipants",
          "type": "tuple[]"
        }
      ],
      "stateMutability": "view",
      "type": "function"
    },
    {
      "inputs": [],
      "name": "owner",
      "outputs": [
        {
          "internalType": "address",
          "name": "",
          "type": "address"
        }
      ],
      "stateMutability": "view",
      "type": "function"
    }
  ],
  "bytecode": "0x608060405234801561001057600080fd5b50600080546001600160a01b031916331790556136ea806100326000396000f3fe608060405260043610620000795760003560e01c80636427cd2d11620000545780636427cd2d14620001005780638da5cb5b1462000135578063b9a2de3a1462000170578063dbe35007146200019557600080fd5b8063454a2ab3146200007e578063571a26a01462000097578063585dad5314620000db575b600080fd5b620000956200008f366004620013da565b620001b5565b005b348015620000a457600080fd5b50620000bc620000b6366004620013da565b6200075c565b604051620000d2989796959493929190620013f4565b60405180910390f35b348015620000e857600080fd5b5062000095620000fa366004620014a2565b62000857565b3480156200010d57600080fd5b50620001256200011f366004620013da565b62000abb565b604051620000d2929190620015af565b3480156200014257600080fd5b5060005462000157906001600160a01b031681565b6040516001600160a01b039091168152602001620000d2565b3480156200017d57600080fd5b50620000956200018f366004620013da565b62000da9565b348015620001a257600080fd5b50600154604051908152602001620000d2565b8060018181548110620001cc57620001cc620015e1565b90600052602060002090600a0201600801544210801562000217575060018181548110620001fe57620001fe620015e1565b600091825260209091206009600a90920201015460ff16155b6200027b5760405162461bcd60e51b815260206004820152602960248201527f41756374696f6e206973206e6f742063757272656e746c79206f70656e206f7260448201526808199a5b9a5cda195960ba1b60648201526084015b60405180910390fd5b60018281548110620002915762000291620015e1565b90600052602060002090600a020160020154341015620002ec5760405162461bcd60e51b815260206004820152601560248201527442696420616d6f756e7420697320746f6f206c6f7760581b604482015260640162000272565b600060018381548110620003045762000304620015e1565b90600052602060002090600a020160010154905080600184815481106200032f576200032f620015e1565b90600052602060002090600a02016005018054905010156200041b5760018381548110620003615762000361620015e1565b60009182526020808320604080516060810182523381523481850190815242928201928352600a95909502909201600501805460018082018355918752939095209151600390930290910180546001600160a01b0319166001600160a01b039093169290921782559151818401559051600290910155805482919085908110620003ef57620003ef620015e1565b90600052602060002090600a0201600501805490500362000415576200041583620012dc565b620006cb565b604080516060810182526000808252600019602083015291810182905290805b83811015620005a0576000600187815481106200045c576200045c620015e1565b90600052602060002090600a02016005018281548110620004815762000481620015e1565b9060005260206000209060030201600101549050600060018881548110620004ad57620004ad620015e1565b90600052602060002090600a02016005018381548110620004d257620004d2620015e1565b906000526020600020906003020160020154905084602001518210806200050c5750846020015182111580156200050c5750846040015181115b156200058857604051806060016040528060018a81548110620005335762000533620015e1565b90600052602060002090600a02016005018581548110620005585762000558620015e1565b6000918252602091829020600390910201546001600160a01b031682528101849052604001829052945091925082915b5050808062000597906200160d565b9150506200043b565b506040518060600160405280336001600160a01b031681526020013481526020014281525060018681548110620005db57620005db620015e1565b90600052602060002090600a02016005018281548110620006005762000600620015e1565b600091825260209182902083516003929092020180546001600160a01b0319166001600160a01b03909216919091178155908201516001808301919091556040909201516002909101558054869081106200065f576200065f620015e1565b60009182526020808320600a9290920290910160060180546001808201835591845292829020855160039094020180546001600160a01b0319166001600160a01b0390941693909317835590840151908201556040830151600290910155620006c885620012dc565b50505b827f0d0299d3ce2726d8c5e6b32588e93a4736f68da4bda67c3e6a39150ebee0e2ef333460018781548110620007055762000705620015e1565b90600052602060002090600a0201600501600188815481106200072c576200072c620015e1565b90600052602060002090600a02016006016040516200074f94939291906200167f565b60405180910390a2505050565b600181815481106200076d57600080fd5b90600052602060002090600a02016000915090508060000180546200079290620016c7565b80601f0160208091040260200160405190810160405280929190818152602001828054620007c090620016c7565b8015620008115780601f10620007e55761010080835404028352916020019162000811565b820191906000526020600020905b815481529060010190602001808311620007f357829003601f168201915b505050600184015460028501546003860154600487015460078801546008890154600990990154979894979396506001600160a01b039283169550911692909160ff1688565b6000546001600160a01b031633146200089f5760405162461bcd60e51b81526020600482015260096024820152682737ba1037bbb732b960b91b604482015260640162000272565b60008415620008af5784620008b2565b60035b905060008415620008c45784620008cd565b66038d7ea4c680005b905060006001600160a01b03851615620008e85784620008f5565b6000546001600160a01b03165b9050600084156200090757846200090c565b620151805b905066038d7ea4c68000831015620009795760405162461bcd60e51b815260206004820152602960248201527f4d696e2062696420666f722061756374696f6e206372656174696f6e2069732060448201526818171818189021272160b91b606482015260840162000272565b600180548082018255600091909152600a027fb10e2d527612073b26eecdfd717e6a320cf44b4afac2b0732d9fcbe2b7fa0cf60180620009bb8b8d836200176c565b5084816001018190555083816002018190555060008b8b87604051620009e190620013cc565b620009ef9392919062001863565b604051809103906000f08015801562000a0c573d6000803e3d6000fd5b506003830180546001600160a01b038084166001600160a01b03199283161790925560048501805492881692909116919091179055426007840181905590915062000a5990849062001889565b60088301556001805462000a6e9190620018a5565b7f5bf34ed94988e5dcdc7d1faaa54eb1d3b55f45d5f11457e235afb21a8ebbe73c8d8d888760405162000aa59493929190620018bb565b60405180910390a2505050505050505050505050565b60608060006001848154811062000ad65762000ad6620015e1565b90600052602060002090600a020160050180549050905060006001858154811062000b055762000b05620015e1565b90600052602060002090600a02016006018054905090508167ffffffffffffffff81111562000b385762000b3862001703565b60405190808252806020026020018201604052801562000b9957816020015b62000b85604051806060016040528060006001600160a01b0316815260200160008152602001600081525090565b81526020019060019003908162000b575790505b5093508067ffffffffffffffff81111562000bb85762000bb862001703565b60405190808252806020026020018201604052801562000c1957816020015b62000c05604051806060016040528060006001600160a01b0316815260200160008152602001600081525090565b81526020019060019003908162000bd75790505b50925060005b8281101562000cde576001868154811062000c3e5762000c3e620015e1565b90600052602060002090600a0201600501818154811062000c635762000c63620015e1565b600091825260209182902060408051606081018252600390930290910180546001600160a01b0316835260018101549383019390935260029092015491810191909152855186908390811062000cbd5762000cbd620015e1565b6020026020010181905250808062000cd5906200160d565b91505062000c1f565b5060005b8181101562000da1576001868154811062000d015762000d01620015e1565b90600052602060002090600a0201600601818154811062000d265762000d26620015e1565b600091825260209182902060408051606081018252600390930290910180546001600160a01b0316835260018101549383019390935260029092015491810191909152845185908390811062000d805762000d80620015e1565b6020026020010181905250808062000d98906200160d565b91505062000ce2565b505050915091565b806001818154811062000dc05762000dc0620015e1565b90600052602060002090600a020160080154421015801562000e0c57506001818154811062000df35762000df3620015e1565b600091825260209091206009600a90920201015460ff16155b62000e5a5760405162461bcd60e51b815260206004820152601e60248201527f41756374696f6e206973207374696c6c206f70656e206f7220656e6465640000604482015260640162000272565b6000805b6001848154811062000e745762000e74620015e1565b90600052602060002090600a02016005018054905081101562000ff2576001848154811062000ea75762000ea7620015e1565b90600052602060002090600a020160030160009054906101000a90046001600160a01b03166001600160a01b03166340d097c36001868154811062000ef05762000ef0620015e1565b90600052602060002090600a0201600501838154811062000f155762000f15620015e1565b600091825260209091206003909102015460405160e083901b6001600160e01b03191681526001600160a01b039091166004820152602401600060405180830381600087803b15801562000f6857600080fd5b505af115801562000f7d573d6000803e3d6000fd5b505050506001848154811062000f975762000f97620015e1565b90600052602060002090600a0201600501818154811062000fbc5762000fbc620015e1565b9060005260206000209060030201600101548262000fdb919062001889565b91508062000fe9816200160d565b91505062000e5e565b5060018381548110620010095762001009620015e1565b60009182526020909120600a91820201600401546001600160a01b0316906108fc906064906200103a9082620018a5565b620010469085620018e4565b620010529190620018fe565b6040518115909202916000818181858888f193505050501580156200107b573d6000803e3d6000fd5b506000546001600160a01b03166108fc60646200109a600a85620018e4565b620010a69190620018fe565b6040518115909202916000818181858888f19350505050158015620010cf573d6000803e3d6000fd5b5060005b60018481548110620010e957620010e9620015e1565b90600052602060002090600a020160060180549050811015620011f357600184815481106200111c576200111c620015e1565b90600052602060002090600a02016006018181548110620011415762001141620015e1565b6000918252602090912060039091020154600180546001600160a01b03909216916108fc9190879081106200117a576200117a620015e1565b90600052602060002090600a020160060183815481106200119f576200119f620015e1565b9060005260206000209060030201600101549081150290604051600060405180830381858888f19350505050158015620011dd573d6000803e3d6000fd5b5080620011ea816200160d565b915050620010d3565b5060018084815481106200120b576200120b620015e1565b90600052602060002090600a020160090160006101000a81548160ff021916908315150217905550827fb22dda038bff7c4c3dea3226ec246156aa978725c679c3a86df07448c3ca6ac7600185815481106200126b576200126b620015e1565b90600052602060002090600a02016002015460018681548110620012935762001293620015e1565b90600052602060002090600a020160050160018781548110620012ba57620012ba620015e1565b90600052602060002090600a02016006016040516200074f9392919062001921565b60001960005b60018381548110620012f857620012f8620015e1565b90600052602060002090600a02016005018054905081101562001389576000600184815481106200132d576200132d620015e1565b90600052602060002090600a02016005018281548110620013525762001352620015e1565b90600052602060002090600302016001015490508281101562001373578092505b508062001380816200160d565b915050620012e2565b506200139d8166038d7ea4c6800062001889565b60018381548110620013b357620013b3620015e1565b90600052602060002090600a0201600201819055505050565b611d5a806200195b83390190565b600060208284031215620013ed57600080fd5b5035919050565b60006101008083528a518082850152600091505b808210156200142c576020828d010151610120838601015260208201915062001408565b6101209150600082828601015281601f19601f830116850101925050508860208301528760408301526200146b60608301886001600160a01b03169052565b6001600160a01b03861660808301528460a08301528360c08301526200149560e083018415159052565b9998505050505050505050565b60008060008060008060a08789031215620014bc57600080fd5b863567ffffffffffffffff80821115620014d557600080fd5b818901915089601f830112620014ea57600080fd5b813581811115620014fa57600080fd5b8a60208285010111156200150d57600080fd5b6020928301985096505087013593506040870135925060608701356001600160a01b03811681146200153e57600080fd5b80925050608087013590509295509295509295565b600081518084526020808501945080840160005b83811015620015a457815180516001600160a01b031688528381015184890152604090810151908801526060909601959082019060010162001567565b509495945050505050565b604081526000620015c4604083018562001553565b8281036020840152620015d8818562001553565b95945050505050565b634e487b7160e01b600052603260045260246000fd5b634e487b7160e01b600052601160045260246000fd5b600060018201620016225762001622620015f7565b5060010190565b6000815480845260208085019450836000528060002060005b83811015620015a45781546001600160a01b0316875260018281015484890152600283015460408901526060909701966003909201910162001642565b60018060a01b0385168152836020820152608060408201526000620016a8608083018562001629565b8281036060840152620016bc818562001629565b979650505050505050565b600181811c90821680620016dc57607f821691505b602082108103620016fd57634e487b7160e01b600052602260045260246000fd5b50919050565b634e487b7160e01b600052604160045260246000fd5b601f8211156200176757600081815260208120601f850160051c81016020861015620017425750805b601f850160051c820191505b8181101562001763578281556001016200174e565b5050505b505050565b67ffffffffffffffff83111562001787576200178762001703565b6200179f83620017988354620016c7565b8362001719565b6000601f841160018114620017d65760008515620017bd5750838201355b600019600387901b1c1916600186901b17835562001833565b600083815260209020601f19861690835b82811015620018095786850135825560209485019460019092019101620017e7565b5086821015620018275760001960f88860031b161c19848701351681555b505060018560011b0183555b5050505050565b81835281816020850137506000828201602090810191909152601f909101601f19169091010190565b604081526000620018796040830185876200183a565b9050826020830152949350505050565b808201808211156200189f576200189f620015f7565b92915050565b818103818111156200189f576200189f620015f7565b606081526000620018d16060830186886200183a565b6020830194909452506040015292915050565b80820281158282048414176200189f576200189f620015f7565b6000826200191c57634e487b7160e01b600052601260045260246000fd5b500490565b8381526060602082015260006200193c606083018562001629565b828103604084015262001950818562001629565b969550505050505056fe60806040523480156200001157600080fd5b5060405162001d5a38038062001d5a833981016040819052620000349162000101565b6040805180820190915260048152631510d2d560e21b6020820152829060006200005f83826200026b565b5060016200006e82826200026b565b5050506200008b620000856200009560201b60201c565b62000099565b600b555062000337565b3390565b600a80546001600160a01b038381166001600160a01b0319831681179093556040519116919082907f8be0079c531659141344cd1fd0a4f28419497f9722a3daafe3b4186f6b6457e090600090a35050565b634e487b7160e01b600052604160045260246000fd5b600080604083850312156200011557600080fd5b82516001600160401b03808211156200012d57600080fd5b818501915085601f8301126200014257600080fd5b815181811115620001575762000157620000eb565b604051601f8201601f19908116603f01168101908382118183101715620001825762000182620000eb565b816040528281526020935088848487010111156200019f57600080fd5b600091505b82821015620001c35784820184015181830185015290830190620001a4565b6000928101840192909252509401519395939450505050565b600181811c90821680620001f157607f821691505b6020821081036200021257634e487b7160e01b600052602260045260246000fd5b50919050565b601f8211156200026657600081815260208120601f850160051c81016020861015620002415750805b601f850160051c820191505b8181101562000262578281556001016200024d565b5050505b505050565b81516001600160401b03811115620002875762000287620000eb565b6200029f81620002988454620001dc565b8462000218565b602080601f831160018114620002d75760008415620002be5750858301515b600019600386901b1c1916600185901b17855562000262565b600085815260208120601f198616915b828110156200030857888601518255948401946001909101908401620002e7565b5085821015620003275787850151600019600388901b60f8161c191681555b5050505050600190811b01905550565b611a1380620003476000396000f3fe608060405234801561001057600080fd5b50600436106101375760003560e01c80634f6ccce7116100b857806395d89b411161007c57806395d89b4114610272578063a22cb4651461027a578063b88d4fde1461028d578063c87b56dd146102a0578063e985e9c5146102b3578063f2fde38b146102ef57600080fd5b80634f6ccce7146102205780636352211e1461023357806370a0823114610246578063715018a6146102595780638da5cb5b1461026157600080fd5b806323b872dd116100ff57806323b872dd146101cb5780632f745c59146101de57806332cb6b0c146101f157806340d097c3146101fa57806342842e0e1461020d57600080fd5b806301ffc9a71461013c57806306fdde0314610164578063081812fc14610179578063095ea7b3146101a457806318160ddd146101b9575b600080fd5b61014f61014a366004611531565b610302565b60405190151581526020015b60405180910390f35b61016c610313565b60405161015b919061159e565b61018c6101873660046115b1565b6103a5565b6040516001600160a01b03909116815260200161015b565b6101b76101b23660046115e6565b6103cc565b005b6008545b60405190815260200161015b565b6101b76101d9366004611610565b6104e6565b6101bd6101ec3660046115e6565b610517565b6101bd600b5481565b6101b761020836600461164c565b6105ad565b6101b761021b366004611610565b610621565b6101bd61022e3660046115b1565b61063c565b61018c6102413660046115b1565b6106cf565b6101bd61025436600461164c565b61072f565b6101b76107b5565b600a546001600160a01b031661018c565b61016c6107c9565b6101b7610288366004611667565b6107d8565b6101b761029b3660046116b9565b6107e7565b61016c6102ae3660046115b1565b61081f565b61014f6102c1366004611795565b6001600160a01b03918216600090815260056020908152604080832093909416825291909152205460ff1690565b6101b76102fd36600461164c565b61082a565b600061030d826108a3565b92915050565b606060008054610322906117c8565b80601f016020809104026020016040519081016040528092919081815260200182805461034e906117c8565b801561039b5780601f106103705761010080835404028352916020019161039b565b820191906000526020600020905b81548152906001019060200180831161037e57829003601f168201915b5050505050905090565b60006103b0826108c8565b506000908152600460205260409020546001600160a01b031690565b60006103d7826106cf565b9050806001600160a01b0316836001600160a01b0316036104495760405162461bcd60e51b815260206004820152602160248201527f4552433732313a20617070726f76616c20746f2063757272656e74206f776e656044820152603960f91b60648201526084015b60405180910390fd5b336001600160a01b0382161480610465575061046581336102c1565b6104d75760405162461bcd60e51b815260206004820152603d60248201527f4552433732313a20617070726f76652063616c6c6572206973206e6f7420746f60448201527f6b656e206f776e6572206f7220617070726f76656420666f7220616c6c0000006064820152608401610440565b6104e18383610927565b505050565b6104f03382610995565b61050c5760405162461bcd60e51b815260040161044090611802565b6104e1838383610a14565b60006105228361072f565b82106105845760405162461bcd60e51b815260206004820152602b60248201527f455243373231456e756d657261626c653a206f776e657220696e646578206f7560448201526a74206f6620626f756e647360a81b6064820152608401610440565b506001600160a01b03919091166000908152600660209081526040808320938352929052205490565b6105b5610b85565b600b54600c54106105fd5760405162461bcd60e51b815260206004820152601260248201527113585e081cdd5c1c1b1e481c995858da195960721b6044820152606401610440565b61060981600c54610bdf565b600c805490600061061983611865565b919050555050565b6104e1838383604051806020016040528060008152506107e7565b600061064760085490565b82106106aa5760405162461bcd60e51b815260206004820152602c60248201527f455243373231456e756d657261626c653a20676c6f62616c20696e646578206f60448201526b7574206f6620626f756e647360a01b6064820152608401610440565b600882815481106106bd576106bd61187e565b90600052602060002001549050919050565b6000818152600260205260408120546001600160a01b03168061030d5760405162461bcd60e51b8152602060048201526018602482015277115490cdcc8c4e881a5b9d985b1a59081d1bdad95b88125160421b6044820152606401610440565b60006001600160a01b0382166107995760405162461bcd60e51b815260206004820152602960248201527f4552433732313a2061646472657373207a65726f206973206e6f7420612076616044820152683634b21037bbb732b960b91b6064820152608401610440565b506001600160a01b031660009081526003602052604090205490565b6107bd610b85565b6107c76000610bf9565b565b606060018054610322906117c8565b6107e3338383610c4b565b5050565b6107f13383610995565b61080d5760405162461bcd60e51b815260040161044090611802565b61081984848484610d19565b50505050565b606061030d82610d4c565b610832610b85565b6001600160a01b0381166108975760405162461bcd60e51b815260206004820152602660248201527f4f776e61626c653a206e6577206f776e657220697320746865207a65726f206160448201526564647265737360d01b6064820152608401610440565b6108a081610bf9565b50565b60006001600160e01b0319821663780e9d6360e01b148061030d575061030d82610dcf565b6000818152600260205260409020546001600160a01b03166108a05760405162461bcd60e51b8152602060048201526018602482015277115490cdcc8c4e881a5b9d985b1a59081d1bdad95b88125160421b6044820152606401610440565b600081815260046020526040902080546001600160a01b0319166001600160a01b038416908117909155819061095c826106cf565b6001600160a01b03167f8c5be1e5ebec7d5bd14f71427d1e84f3dd0314c0f7b2291e5b200ac8c7c3b92560405160405180910390a45050565b6000806109a1836106cf565b9050806001600160a01b0316846001600160a01b031614806109e857506001600160a01b0380821660009081526005602090815260408083209388168352929052205460ff165b80610a0c5750836001600160a01b0316610a01846103a5565b6001600160a01b0316145b949350505050565b826001600160a01b0316610a27826106cf565b6001600160a01b031614610a4d5760405162461bcd60e51b815260040161044090611894565b6001600160a01b038216610aaf5760405162461bcd60e51b8152602060048201526024808201527f4552433732313a207472616e7366657220746f20746865207a65726f206164646044820152637265737360e01b6064820152608401610440565b610abc8383836001610e1f565b826001600160a01b0316610acf826106cf565b6001600160a01b031614610af55760405162461bcd60e51b815260040161044090611894565b600081815260046020908152604080832080546001600160a01b03199081169091556001600160a01b0387811680865260038552838620805460001901905590871680865283862080546001019055868652600290945282852080549092168417909155905184937fddf252ad1be2c89b69c2b068fc378daa952ba7f163c4a11628f55a4df523b3ef91a4505050565b600a546001600160a01b031633146107c75760405162461bcd60e51b815260206004820181905260248201527f4f776e61626c653a2063616c6c6572206973206e6f7420746865206f776e65726044820152606401610440565b6107e3828260405180602001604052806000815250610f53565b600a80546001600160a01b038381166001600160a01b0319831681179093556040519116919082907f8be0079c531659141344cd1fd0a4f28419497f9722a3daafe3b4186f6b6457e090600090a35050565b816001600160a01b0316836001600160a01b031603610cac5760405162461bcd60e51b815260206004820152601960248201527f4552433732313a20617070726f766520746f2063616c6c6572000000000000006044820152606401610440565b6001600160a01b03838116600081815260056020908152604080832094871680845294825291829020805460ff191686151590811790915591519182527f17307eab39ab6107e8899845ad3d59bd9653f200f220920489ca2b5937696c31910160405180910390a3505050565b610d24848484610a14565b610d3084848484610f86565b6108195760405162461bcd60e51b8152600401610440906118d9565b6060610d57826108c8565b6000610d7d604080518082019091526007815266697066733a2f2f60c81b602082015290565b90506000815111610d9d5760405180602001604052806000815250610dc8565b80610da784611087565b604051602001610db892919061192b565b6040516020818303038152906040525b9392505050565b60006001600160e01b031982166380ac58cd60e01b1480610e0057506001600160e01b03198216635b5e139f60e01b145b8061030d57506301ffc9a760e01b6001600160e01b031983161461030d565b6001811115610e8e5760405162461bcd60e51b815260206004820152603560248201527f455243373231456e756d657261626c653a20636f6e7365637574697665207472604482015274185b9cd9995c9cc81b9bdd081cdd5c1c1bdc9d1959605a1b6064820152608401610440565b816001600160a01b038516610eea57610ee581600880546000838152600960205260408120829055600182018355919091527ff3f7a9fe364faab93b216da50a3214154f22a0a2b415b23a84c8169e8b636ee30155565b610f0d565b836001600160a01b0316856001600160a01b031614610f0d57610f0d858261111a565b6001600160a01b038416610f2957610f24816111b7565b610f4c565b846001600160a01b0316846001600160a01b031614610f4c57610f4c8482611266565b5050505050565b610f5d83836112aa565b610f6a6000848484610f86565b6104e15760405162461bcd60e51b8152600401610440906118d9565b60006001600160a01b0384163b1561107c57604051630a85bd0160e11b81526001600160a01b0385169063150b7a0290610fca90339089908890889060040161195a565b6020604051808303816000875af1925050508015611005575060408051601f3d908101601f1916820190925261100291810190611997565b60015b611062573d808015611033576040519150601f19603f3d011682016040523d82523d6000602084013e611038565b606091505b50805160000361105a5760405162461bcd60e51b8152600401610440906118d9565b805181602001fd5b6001600160e01b031916630a85bd0160e11b149050610a0c565b506001949350505050565b6060600061109483611443565b600101905060008167ffffffffffffffff8111156110b4576110b46116a3565b6040519080825280601f01601f1916602001820160405280156110de576020820181803683370190505b5090508181016020015b600019016f181899199a1a9b1b9c1cb0b131b232b360811b600a86061a8153600a85049450846110e857509392505050565b600060016111278461072f565b61113191906119b4565b600083815260076020526040902054909150808214611184576001600160a01b03841660009081526006602090815260408083208584528252808320548484528184208190558352600790915290208190555b5060009182526007602090815260408084208490556001600160a01b039094168352600681528383209183525290812055565b6008546000906111c9906001906119b4565b600083815260096020526040812054600880549394509092849081106111f1576111f161187e565b9060005260206000200154905080600883815481106112125761121261187e565b600091825260208083209091019290925582815260099091526040808220849055858252812055600880548061124a5761124a6119c7565b6001900381819060005260206000200160009055905550505050565b60006112718361072f565b6001600160a01b039093166000908152600660209081526040808320868452825280832085905593825260079052919091209190915550565b6001600160a01b0382166113005760405162461bcd60e51b815260206004820181905260248201527f4552433732313a206d696e7420746f20746865207a65726f20616464726573736044820152606401610440565b6000818152600260205260409020546001600160a01b0316156113655760405162461bcd60e51b815260206004820152601c60248201527f4552433732313a20746f6b656e20616c7265616479206d696e746564000000006044820152606401610440565b611373600083836001610e1f565b6000818152600260205260409020546001600160a01b0316156113d85760405162461bcd60e51b815260206004820152601c60248201527f4552433732313a20746f6b656e20616c7265616479206d696e746564000000006044820152606401610440565b6001600160a01b038216600081815260036020908152604080832080546001019055848352600290915280822080546001600160a01b0319168417905551839291907fddf252ad1be2c89b69c2b068fc378daa952ba7f163c4a11628f55a4df523b3ef908290a45050565b60008072184f03e93ff9f4daa797ed6e38ed64bf6a1f0160401b83106114825772184f03e93ff9f4daa797ed6e38ed64bf6a1f0160401b830492506040015b6d04ee2d6d415b85acef810000000083106114ae576d04ee2d6d415b85acef8100000000830492506020015b662386f26fc1000083106114cc57662386f26fc10000830492506010015b6305f5e10083106114e4576305f5e100830492506008015b61271083106114f857612710830492506004015b6064831061150a576064830492506002015b600a831061030d5760010192915050565b6001600160e01b0319811681146108a057600080fd5b60006020828403121561154357600080fd5b8135610dc88161151b565b60005b83811015611569578181015183820152602001611551565b50506000910152565b6000815180845261158a81602086016020860161154e565b601f01601f19169290920160200192915050565b602081526000610dc86020830184611572565b6000602082840312156115c357600080fd5b5035919050565b80356001600160a01b03811681146115e157600080fd5b919050565b600080604083850312156115f957600080fd5b611602836115ca565b946020939093013593505050565b60008060006060848603121561162557600080fd5b61162e846115ca565b925061163c602085016115ca565b9150604084013590509250925092565b60006020828403121561165e57600080fd5b610dc8826115ca565b6000806040838503121561167a57600080fd5b611683836115ca565b91506020830135801515811461169857600080fd5b809150509250929050565b634e487b7160e01b600052604160045260246000fd5b600080600080608085870312156116cf57600080fd5b6116d8856115ca565b93506116e6602086016115ca565b925060408501359150606085013567ffffffffffffffff8082111561170a57600080fd5b818701915087601f83011261171e57600080fd5b813581811115611730576117306116a3565b604051601f8201601f19908116603f01168101908382118183101715611758576117586116a3565b816040528281528a602084870101111561177157600080fd5b82602086016020830137600060208483010152809550505050505092959194509250565b600080604083850312156117a857600080fd5b6117b1836115ca565b91506117bf602084016115ca565b90509250929050565b600181811c908216806117dc57607f821691505b6020821081036117fc57634e487b7160e01b600052602260045260246000fd5b50919050565b6020808252602d908201527f4552433732313a2063616c6c6572206973206e6f7420746f6b656e206f776e6560408201526c1c881bdc88185c1c1c9bdd9959609a1b606082015260800190565b634e487b7160e01b600052601160045260246000fd5b6000600182016118775761187761184f565b5060010190565b634e487b7160e01b600052603260045260246000fd5b60208082526025908201527f4552433732313a207472616e736665722066726f6d20696e636f72726563742060408201526437bbb732b960d91b606082015260800190565b60208082526032908201527f4552433732313a207472616e7366657220746f206e6f6e20455243373231526560408201527131b2b4bb32b91034b6b83632b6b2b73a32b960711b606082015260800190565b6000835161193d81846020880161154e565b83519083019061195181836020880161154e565b01949350505050565b6001600160a01b038581168252841660208201526040810183905260806060820181905260009061198d90830184611572565b9695505050505050565b6000602082840312156119a957600080fd5b8151610dc88161151b565b8181038181111561030d5761030d61184f565b634e487b7160e01b600052603160045260246000fdfea26469706673582212209a19d37cc646894534fddf8bfa7fd931230a2fd48c33bab35c935cbe8706497464736f6c63430008110033a2646970667358221220bf7f74b9bc577e3dd04b909a2eb2c95d9b85b73dae4f17789fdcf95d36f59fa264736f6c63430008110033",
  "linkReferences": {},
  "deployedLinkReferences": {}
}